:020000020000FC
:100000000C9473000C941F010C9430010C9451015A
:100010000C9472000C9472000C9472000C94720098
:100020000C9472000C9472000C9472000C94720088
:100030000C9472000C9472000C9472000C94720078
:100040000C9472000C9472000C9472000C94720068
:100050000C9445010C9472000C9472000C94C50031
:100060000C9472000C9472000C9472000C94720048
:100070000C9472000C9472000C9472000C94720038
:100080000C9472000C9472000C9472000C94720028
:1000E40018950FEF0DBF01E20EBF6FEF67B90FEF69
:1000F40000BB01B9002701BB02B900270AB960E2BD
:100104006093690064E06DBB05D1D1D0DFD08FD49A
:1001140078945CE350937A0251E050937C0251E06E
:1001240050937B0255275093750250937602509357
:10013400770250937D0250937E0250938002DED466
:100144000093050223D207D541D5D3D5AFD2F1D63A
:10015400CAE6D2E0588150937F02FCD54DD46ED4C8
:10016400033209F0FCCF50917C02513021F052301F
:1001740031F00C94B10051E050938002F0CF52E082
:1001840050938002ECCF5FB75F936F93DF93CF936D
:100194009F938F938CD080910202909103020196D9
:1001A4008C325AE09507E9F5C2E0D2E0552759931D
:1001B4005883809100028395DED5ECD535D650D690
:1001C40070917A02703019F12AD460917802572F15
:1001D400561B671728F0671B6030D1F00C94FF00A2
:1001E4006091980040919900650F7727471F4093CD
:1001F4009900609398000C940A0150919800561B42
:10020400409199004040409399005093980054D0F5
:100214001FD355275093780250937902809300029C
:1002240004C080930202909303028F919F91CF9117
:10023400DF916F915F915FBF18956F936091040296
:10024400613049F059D00C94270161E060930402B5
:1002540061E060936F00B8D36F9118956F936091CC
:100264000402613069F060917502639560937502D0
:100274000C943C0161E06093040261E060936F00C0
:10028400A3D36F9118956F9378948FD3F8946627BE
:100294006093040260E060936F006F9118956F9310
:1002A400609179026395609379026F9118956F93C9
:1002B400662768B96F9108956F936FEF68B96627E1
:1002C40050939900509398006F9108956F93662707
:1002D40060930402609169006260686060936900E1
:1002E4006DB3616062606DBB66276093800064E0FB
:1002F400609381006F9108955F936F93509177029B
:1003040060917602561719F06395609376026F91A7
:100314005F91089508E328D337D350D308E324D357
:1003240033D343D308E320D32FD308E31DD32CD3F3
:1003340008E01AD329D301E017D326D306E014D357
:1003440023D30EE011D320D3089504E514D31CD392
:1003540009E711D319D300E70ED316D305E60BD35F
:1003640013D300E208D310D304E705D30DD308E672
:1003740002D30AD305E6FFD207D300E2FCD204D3AA
:100384000DE6F9D201D301E6F6D2FED208E7F3D2A4
:10039400FBD200E2F0D2F8D20EE6EDD2F5D205E7B8
:1003A400EAD2F2D20DE6E7D2EFD208EADDD2ECD2FD
:1003B4000FE6E1D2E9D206E6DED2E6D200E2DBD2F3
:1003C400E3D203E7D8D2E0D204E7D5D2DDD201E606
:1003D400D2D2DAD204E7CFD2D7D209E6CCD2D4D261
:1003E4000FE6C9D2D1D20EE6C6D2CED203E7C3D22B
:1003F400CBD20AE3C0D2C8D200E2BDD2C5D208959E
:100404000EE4B9D2C1D201E6B6D2BED20DE6B3D261
:10041400BBD205E6B0D2B8D200E2ADD2B5D20FE677
:10042400AAD2B2D206E6A7D2AFD200E2A4D2ACD20C
:1004340003E7A1D2A9D204E79ED2A6D201E69BD2B9
:10044400A3D204E798D2A0D209E695D29DD20FE6B2
:1004540092D29AD20EE68FD297D200E28CD294D264
:1004640008EA82D291D2089504E585D28DD209E6B4
:1004740082D28AD20DE67FD287D205E67CD284D29C
:1004840000E279D281D206E676D27ED202E773D236
:100494007BD20FE670D278D20DE66DD275D200E22F
:1004A4006AD272D203E767D26FD204E764D26CD205
:1004B40001E661D269D204E75ED266D209E65BD274
:1004C40063D20FE658D260D208EA4ED25DD20EE66D
:1004D40052D25AD200E24FD257D2089503E54BD2FA
:1004E40053D204E748D250D20FE645D24DD200E7AA
:1004F40042D24AD200E23FD247D204E73CD244D2AD
:1005040009E639D241D20DE636D23ED205E633D2DF
:100514003BD200E230D238D201E62DD235D204E704
:100524002AD232D200E227D22FD201E624D22CD210
:100534000EE621D229D209E71ED226D208EA14D225
:1005440023D203E718D220D204E715D21DD201E644
:1005540012D21AD204E70FD217D209E60CD214D25F
:100564000FE609D211D20EE606D20ED200E203D271
:100574000BD209E600D208D203E7FDD105D20AE383
:10058400FAD102D200E2F7D1FFD108955F9301E0DE
:10059400EBD1FAD10EE4EFD1F7D105E7ECD1F4D1E8
:1005A4000DE6E9D1F1D102E6E6D1EED105E6E3D1DB
:1005B400EBD102E7E0D1E8D100E2DDD1E5D10FE6ED
:1005C400DAD1E2D106E6D7D1DFD108EACDD1DCD148
:1005D40003E7D1D1D9D104E7CED1D6D101E6CBD12D
:1005E400D3D104E7C8D1D0D109E6C5D1CDD10FE626
:1005F400C2D1CAD10EE6BFD1C7D100E2BCD1C4D1A9
:1006040009E6B9D1C1D103E7B6D1BED10AE3B3D16A
:10061400BBD100E2B0D1B8D1509105025A3051F0AB
:10062400505D052FA8D1B0D1DDD101E09DD1ACD171
:100634005F91089501E39FD1A7D100E39CD1A4D198
:100644000C94160301E090D19FD109E494D19CD17C
:100654000EE491D199D103E48ED196D10FE48BD1DC
:1006640093D102E588D190D102E585D18DD102E5FF
:1006740082D18AD105E47FD187D103E47CD184D1AE
:1006840004E579D181D108EA6FD17ED109E473D12F
:100694007BD10EE470D178D100E56DD175D105E53B
:1006A4006AD172D104E567D16FD1089501E05CD1BC
:1006B4006BD103E460D168D10FE45DD165D10EE460
:1006C4005AD162D106E457D15FD109E454D15CD147
:1006D40007E451D159D105E54ED156D102E54BD1AC
:1006E40053D101E448D150D104E545D14DD109E4B9
:1006F40042D14AD10FE43FD147D10EE43CD144D199
:1007040000E239D141D109E436D13ED103E533D1F8
:100714003BD108EA29D138D103E42DD135D10FE4F6
:100724002AD132D10DE427D12FD100E524D12CD107
:100734000CE421D129D105E41ED126D104E51BD135
:1007440023D105E418D120D100E215D11DD107E54C
:1007540012D11AD101E40FD117D109E40CD114D16B
:1007640004E509D111D10EE206D10ED10EE203D176
:100774000BD10EE200D108D135D134D101E0F4D04F
:1007840003D1089501E0F0D0FFD00EE4F4D0FCD002
:1007940001E6F1D0F9D00DE6EED0F6D005E6EBD0C7
:1007A400F3D000E2E8D0F0D00FE6E5D0EDD006E6D5
:1007B400E2D0EAD000E2DFD0E7D003E7DCD0E4D037
:1007C40004E7D9D0E1D001E6D6D0DED004E7D3D017
:1007D400DBD009E6D0D0D8D00FE6CDD0D5D00EE608
:1007E400CAD0D2D008EAC0D0CFD04F5C042FC3D037
:1007F400CBD0415300E2BFD0C7D009E6BCD0C4D0AF
:1008040003E7B9D0C1D00AE3B6D0BED000E2B3D07A
:10081400BBD008950F936F937F93742F6AE0769FF4
:10082400C02DDD2766E0C60F62E0D61F60E06A30A7
:1008340039F00991002F9FD0A7D063950C94190427
:10084400D1D001E091D0A0D07F916F910F91089504
:100854005F9301E089D098D04FD05BE8052F84D016
:1008640093D061D05EE8052F7FD08ED062D008EAA5
:100874007BD08AD046D05DEA052F76D085D00FE4B0
:100884007AD082D00EE477D07FD041D051EB052FBF
:100894006BD07AD00FE46FD077D006E46CD074D0EC
:1008A40006E469D071D039D056EB052F5DD06CD0F9
:1008B4001DD057EB052F58D067D002D05F91089513
:1008C4005F9350917C02513039F0523051F003E57E
:1008D40052D05AD00C9476040DE44DD055D00C94DB
:1008E400760402E448D050D05F9108955F9350910C
:1008F4007E0225D05F9108954F9340917B02B2D33D
:100904004F915F93509177021AD05F9108955F934E
:100914005091750214D05F9108955F9350917602BF
:100924000ED05F9108955F935091780208D05F9143
:1009340008955F9350917A0202D05F9108955F9376
:100944006F9366275A3008F408C05A5063955A309A
:10095400E0F7605D062F0FD017D0505D052F0BD048
:1009640013D06F915F91089501BB1FD0169A1DD0CB
:1009740016981BD0089501BB179A17D0169A15D054
:10098400169813D0179808950F93002700BB01BB46
:10099400159A0BD0169A09D00FB1169807FDF9CF06
:1009A40015980FEF00BB0F9108958F939F939FE0CD
:1009B4008CE90197F1F79F918F910895F6DFF5DFA8
:1009C400F4DFF3DFF2DF0895F9DFF8DFF7DFF6DFB6
:1009D400F5DF08955F935527523361F0F5DF5395A2
:1009E4000C94EE045F9355275A3F21F0EDDF5395A5
:1009F4000C94F6045F9108956F936FEF6DB96627B9
:100A04006093990066276093980061E06093910079
:100A140063EA6093900062E065BD6F9108956F93FF
:100A2400609179026595609378026F9108956F9350
:100A340060EF60930A016FEF6F9108953FEE2227F4
:100A440030930B015FEF5A95F1F7509109015F70F4
:100A54005F3069F031E01127452F432321F40C94D2
:100A640040050C9420051395330F0C942E05233068
:100A740029F30894331F23950C942205233049F05D
:100A8400133059F0012F000F010F020F03950C943E
:100A94005A0501E1010F0C945A05203029F0213048
:100AA40031F003EF0C945A050AEF0C945A05002711
:100AB400005D409109014F704323D9F30895002745
:100AC4008827BCDF0A32C1F0033289F00134A1F077
:100AD400023491F0033481F0043459F05AE0859FD4
:100AE400802D800F80538B313CF40C94630500E21D
:100AF4000895082F005C0895A5DD31CB6F9325DCA4
:100B040088279CDF0A32C1F30332B1F30134A1F325
:100B1400023491F3033481F30434A1F0002F2BDF6A
:100B240033DF5AE0859F802D912D602F6053860F0F
:100B34006627961F903001F78436F4F68030E4F28D
:100B44000C9483058B300CF08AE082300CF482E044
:100B5400082F6F91089540E0809105024817E1F055
:100B6400742F6AE0769F702DC02DDD2766E0C60FD6
:100B740062E0D61F01E0F8DE07DF42DC4F5C042FA1
:100B8400FADE02DF41530AE3F6DEFEDE06D0FADDCA
:100B940041DE43950C94AE0508956F934F9360E046
:100BA4006A3089F08CDF003439F0002FE4DEECDEAB
:100BB400099363950C94D2056A3029F040E2499375
:100BC40063950C94DE054F916F9108956F9342E005
:100BD40080910502841794F1CAE6642F6250C60F0F
:100BE400D2E06627D61F01E0BFDECEDE3DDC642FF7
:100BF400615D062FC0DEC8DE00E2BDDEC5DE04E7AF
:100C0400BADEC2DE0FE6B7DEBFDE00E2B4DEBCDE73
:100C1400642F605D062FAFDEB7DE00E2ACDEB4DE2B
:100C240009E6A9DEB1DE03E7A6DEAEDE0AE3A3DE53
:100C3400ABDE2FD0088343950C94EA05C3E7DBE0D1
:100C440001E092DEA1DE10DC60910502605D062FFA
:100C540092DE9ADE00E28FDE97DE04E78CDE94DE1D
:100C64000FE689DE91DE00E286DE8EDE01E383DEBE
:100C74008BDE00E280DE88DE09E67DDE85DE03E7CA
:100C84007ADE82DE0AE377DE7FDE03D008836F91AB
:100C940008955F934F938827D1DE0A3241F10332DE
:100CA40031F1013421F1023411F1033401F104343E
:100CB400A1F0002F60DE68DE5AE0859F802D912D23
:100CC400602F6053860F6627961F903081F4843618
:100CD40074F4803064F00C944E068B300CF08AE08F
:100CE40081300CF481E0082F4F915F910895AADCC4
:100CF40036CAC4E7D2E001E037DE46DEEFDB882700
:100D04009DDE0A32A1F3033291F3013481F30234FC
:100D140071F3033461F30434A1F0002F2CDE34DECC
:100D24005AE0859F802D912D602F6053860F662792
:100D3400961F9030E1F68436D4F68030C4F20C94D9
:100D4400820686300CF085E082300CF482E0082FB5
:100D5400088308956F9366276093020260930302E9
:100D6400609300026093010261E060936E00882743
:100D740099276F9108955F936F9350917C0252303D
:100D840029F050917D02539550937D02A7D06F9125
:100D94005F9108955F936F9350918002523021F0D8
:100DA400513029F00C94DA0633D00C94DA0603D0CF
:100DB4006F915F9108955F936F934F93662750915E
:100DC4007D02533020F0535063950C94E306503069
:100DD40011F00C94F90640917F02641710F00C9402
:100DE400F60609D00C94F9065527509380024F91CA
:100DF4006F915F9108955F936F93552750937A0293
:100E04005093800252E050937C026F915F91089559
:100E14005F935CE350937A0251E050937C02552730
:100E2400509380025F9108955F9350917C025130FA
:100E3400A9F0523099F05091740260917E025617D5
:100E440011F00C9430075CE350937A0251E0509314
:100E54007C02552750937D0250937E025F91089542
:100E64005F936F9350917C02503021F1523011F115
:100E740050917F0260917E02651711F00C945C071B
:100E84001CD0552750937C0250937D0250937E02D0
:100E940037D05091750260917702650F50917602B8
:100EA400651B609377025527509375025093760221
:100EB40050937A026F915F9108955F936F9350916D
:100EC4007B0260910502561719F053950C946B0739
:100ED40051E050937B026F915F9108955F936F93FC
:100EE400662750917D02533030F053506395533050
:100EF40010F00C94770760937E026F915F910895D0
:100F04005F936F9350917B0260910502561749F0ED
:100F1400CAE6D2E061E00991651731F063950C945B
:100F24008D07C3E7DBE0088100937F026F915F9137
:100F340008956ED020D05AD001D0089542D27EDDDB
:100F4400B4D008950F936F935F9360910502461791
:100F540049F0CAE6D2E061E00991641731F0639583
:100F64000C94AE07C3E7DBE00881502FE8DC5F9107
:100F74006F910F9108955F936F934F93442750910E
:100F84000502451779F1B4D001E0EEDCFDDC00E8A0
:100F9400EBDCFADC67D000E2EEDCF6DC04E7EBDC49
:100FA400F3DC0FE6E8DCF0DC00E2E5DCEDDC08EA8B
:100FB400DBDCEADC439556D00AE3DDDCE5DCC2DFAA
:100FC40003E7D9DCE1DC05E6D6DCDEDC03E6D3DCD2
:100FD400DBDC08DD01E0C8DCD7DC00E8C5DCD4DC00
:100FE4000C94C1074F916F915F9108955F9398D1CD
:100FF40008EABADCC9DC50917402505D052FBBDCF1
:10100400C3DCC6D1EFDC01E0AFDCBEDC5F91089548
:101014005F936F934F934427509105024517F1F066
:1010240093D008EAA1DCB0DC642F6395605D062FE1
:10103400A2DCAADC00E29FDCA7DC0DE29CDCA4DCE1
:1010440000E299DCA1DC0ED0CDDC01E08DDC9CDC7F
:1010540000E88ADC99DC43950C940E084F916F915B
:101064005F9108950F936F937F93609105024617E4
:1010740061F0742F6AE0769FC02DDD2766E0C60F0D
:1010840062E0D61F60E00C944A08C6E0D2E060E05B
:101094006A3039F00991002F6EDC76DC63950C948C
:1010A4004A087F916F910F9108955F936F9301E0C8
:1010B4005BDC6ADCCFD101E35EDC66DC00E35BDC95
:1010C40063DC88DC01E050DC5FDC59E0503069F01F
:1010D400C1D1652F605D062F4EDC56DC7BDC01E060
:1010E40043DC52DC5A950C9468086F915F91089523
:1010F4006F934F937F93EFD008EA36DC45DC2FD112
:10110400642F6395605D062F36DC3EDC00E233DC41
:101114003BDC04E730DC38DC0FE62DDC35DC00E2B8
:101124002ADC32DC642F6395639570910502739514
:10113400671709F461E0605D062F1DDC25DC52DCD5
:101144007F914F916F9108955F93509105025230B2
:1011540081F0533089F0543091F0553099F0563085
:10116400A1F05730A9F05830B1F05930B9F05A30E5
:10117400C1F01DD00C94D60824D00C94D60831D0DC
:101184000C94D6083BD00C94D60845D00C94D608C1
:101194004CD00C94D60859D00C94D60866D00C9434
:1011A400D60870D00C94D60877D05F91089504E5E2
:1011B400E2DBEADB07E7DFDBE7DB0FE6DCDBE4DBD4
:1011C400089504E5D8DBE0DB08E6D5DBDDDB02E7E8
:1011D400D2DBDADB05E6CFDBD7DB05E6CCDBD4DB21
:1011E400089506E4C8DBD0DB0FE6C5DBCDDB05E7FD
:1011F400C2DBCADB02E7BFDBC7DB089506E4BBDB67
:10120400C3DB09E6B8DBC0DB06E7B5DBBDDB05E61F
:10121400B2DBBADB089503E5AEDBB6DB09E6ABDB94
:10122400B3DB08E7A8DBB0DB089503E5A4DBACDBA4
:1012340005E6A1DBA9DB06E79EDBA6DB05E69BDB77
:10124400A3DB0EE698DBA0DB089505E494DB9CDBCE
:1012540009E691DB99DB07E68EDB96DB08E68BDBA0
:1012640093DB04E788DB90DB08950EE484DB8CDBFE
:1012740009E681DB89DB0EE67EDB86DB05E67BDBCC
:1012840083DB089504E577DB7FDB05E674DB7CDB39
:101294000EE671DB79DB089500E26DDB75DB03E7B5
:1012A4006ADB72DB04E767DB6FDB01E664DB6CDBC4
:1012B40004E761DB69DB09E65EDB66DB0FE65BDB2B
:1012C40063DB0EE658DB60DB03E755DB5DDB0AE33B
:1012D40052DB5ADB089504E54EDB56DB02E74BDBB9
:1012E40053DB01E648DB50DB06E745DB4DDB05E677
:1012F40042DB4ADB0CE63FDB47DB00E23CDB44DB62
:1013040004E739DB41DB09E636DB3EDB0DE633DBA4
:101314003BDB05E630DB38DB0AE32DDB35DB089508
:1013240003E529DB31DB04E726DB2EDB0FE623DBD9
:101334002BDB00E720DB28DB00E21DDB25DB04E7F9
:101344001ADB22DB09E617DB1FDB0DE614DB1CDBF3
:1013540005E611DB19DB0AE30EDB16DB089503E770
:101364000ADB12DB04E707DB0FDB01E604DB0CDB43
:1013740004E701DB09DB09E6FEDA06DB0FE6FBDA4C
:1013840003DB0EE6F8DA00DB00E2F5DAFDDA0895B5
:1013940000E2F1DAF9DA03E7EEDAF6DA05E6EBDA97
:1013A400F3DA03E6E8DAF0DA0FE6E5DAEDDA0EE688
:1013B400E2DAEADA04E6DFDAE7DA03E7DCDAE4DAE7
:1013C400089500E5D8DAE0DA02E7D5DADDDA05E6F1
:1013D400D2DADADA03E7CFDAD7DA03E7CCDAD4DA27
:1013E40000E2C9DAD1DA01E6C6DACEDA0EE6C3DA09
:1013F400CBDA09E7C0DAC8DA00E2BDDAC5DA0BE60F
:10140400BADAC2DA05E6B7DABFDA09E7B4DABCDA7F
:1014140000E2B1DAB9DA04E7AEDAB6DA0FE6ABDA4B
:10142400B3DA08EAA1DAB0DA03E6A5DAADDA0FE650
:10143400A2DAAADA0EE69FDAA7DA06E69CDAA4DADA
:1014440009E699DAA1DA02E796DA9EDA0DE693DA8A
:101454009BDA08950DE48FDA97DA0FE68CDA94DAE2
:101464000EE689DA91DA0FE686DA8EDA02E783DAB3
:101474008BDA01E680DA88DA09E67DDA85DA0CE6C9
:101484007ADA82DA00E277DA7FDA03E774DA7CDA8E
:1014940004E771DA79DA01E66EDA76DA02E76BDA12
:1014A40073DA04E768DA70DA03E765DA6DDA08EA12
:1014B4005BDA6ADA05E65FDA67DA0DE65CDA64DAE3
:1014C40005E759DA61DA0CE656DA5EDA01E653DA50
:1014D4005BDA04E750DA58DA09E64DDA55DA0FE652
:1014E4004ADA52DA0EE647DA4FDA00E244DA4CDA44
:1014F40009E641DA49DA0EE63EDA46DA00E23BDA98
:0415040043DA089529
:00000001FF
